:020000020000FC
:0200000028C016
:0200040018954D
:02000800189549
:02000C00189545
:02001000189541
:0200140018953D
:02001800189539
:02001C00189535
:02002000189531
:020024002AC1EF
:02002800189529
:02002C00189525
:02003000189521
:0200340018951D
:02003800189519
:02003C00189515
:02004000189511
:0200440018950D
:02004800189509
:02004C00189505
:10005000189504E00EBF0FE50DBF04B7006804BF9C
:1000600004BF0E943B000E9445000E9455000E9470
:1000700050000C94D20100E010E020E030E040E0BD
:1000800050E060E070E090E008950F6F0ABB0F6FE2
:1000900007BB0FEF01BB006004BB0F6F05BB0895EA
:1000A00009640BBB096408BB089505E003BF09B7E9
:1000B000016009BF0895D898D998DA9A0895DB9815
:1000C000DC98DD9A0895DE98DF9A0895C098C1986B
:1000D000C29A0895C398C498C59A0895C698C79AB5
:1000E0000895D898D99ADA980895DB98DC9ADD9823
:1000F0000895C098C19AC2980895C398C49AC598A3
:100100000895D89AD998DA980895DB9ADC98DD9802
:100110000895DE9ADF980895C09AC198C29808950C
:10012000C39AC498C5980895C69AC7980895D89A4E
:10013000D99ADA980895DB9ADC9ADD980895C09AE6
:10014000C19AC2980895C39AC49AC598089586E240
:10015000AFEFBFEF8A9519F486E2716008951197A9
:10016000F1F70C94A8008BE0AFEFBFEF8A9511F484
:100170008BE008951197F1F70C94B400AAEFB0E06A
:100180001197F1F7089503B300FD089510FD089548
:1001900053FD0895116052FD0C94DA0051FD0C944A
:1001A000DA0050FD0C94DA000C94D6001260516015
:1001B0000C94E000110F1D7F1160550F0C94E000AE
:1001C000089503B301FD089520FD089553FD08959A
:1001D000216052FD0C94F80051FD0C94F80050FD84
:1001E0000C94F8000C94F400226051600C94FE0012
:1001F000220F2D7F2160550F0C94FE00089503B34C
:1002000002FD089530FD089553FD0895316052FDBB
:100210000C94160151FD0C94160150FD0C9416011E
:100220000C941201326051600C941C01330F3D7F1D
:100230003160550F0C941C01089503B303FD08951C
:1002400040FD089553FD0895416052FD0C94340122
:1002500051FD0C94340150FD0C9434010C94300188
:10026000426051600C943A01440F4D7F4160550F3C
:100270000C943A01089578940895939595FF1895F4
:1002800092FF189591FF189590E011FD0E9455017D
:1002900021FD0E946A0131FD0E947F0141FD0E9403
:1002A00092010E94A901716018950E9450000E945D
:1002B000B3000E9463000E945F00CCEED5E20E9472
:1002C000C2010E9475000E94B3000E945000569522
:1002D000112708950E9450000E94B3000E946E00F2
:1002E0000E945B00CCEED5E20E94C2010E94710028
:1002F0000E94B3000E9450005695222708950E9444
:1003000050000E94B3000E945B00CCEED5E20E9438
:10031000C2010E9471000E94B3000E9450005695D5
:10032000332708950E9450000E94B3000E94660087
:100330000E945F00CCEED5E20E94C2010E947900CB
:100340000E9479000E94B3000E94500056954427F5
:10035000089510FD0E94B60120FD0E94B90130FDF4
:100360000E94BC0140FD0E94BF01089516951160D6
:100370000895269521600895369531600895469533
:10038000416008950E94BE00219749F00E94C30079
:100390000E94E1000E94FF000E941D01F3CFCCEEFD
:1003A000D5E208950E9450000E946A000E945F00FA
:1003B000F8940E94C3000E94E1000E94FF000E9486
:1003C0001D0153FD0C94F10152FD0C94F10151FDFE
:1003D0000C94F10150FD0C94F1010C94EF010C947C
:1003E000D90170FD0C94D20127F30E943B010C94BB
:0203F000D90131
:00000001FF
